:10083300073F3A3B1705010316122CC0F9A4B099E0
:100843009282F880908880C6C0868EBF7F01240084
:10085300012100012500013E00014E000128000195
:080863002301012200014600FF
:100902007F041209D2E4F5807F011209D27580FFBB
:10091200120930120A951207F91204098E298F2A38
:0E0922001208A11204ED12086C12002180E8E8
:10093000750980E4FD7F8E120A15E4F508743F25E1
:1009400008F8E6FDAF09120A15050905090508E5CD
:0D09500008C3940740E77D807F8E020A15E2
:1008A100750981E5247029FD7F8E120A15E4F5088A
:1008B100AF091208D274472508F8A60705090509EA
:1008C1000508E508C3940740E77D807F8E120A156D
:0108D1002204
:09077D00E54975F00A84FD7F01D5
:100786008F098D0A7F031209D2E4F580E50914FF6B
:100796007401A807088002C333D8FCF5807F0212D3
:1007A60009D27580FF742C250AF8E6F5807F017E54
:0807B60000120A307580FF22D9
:1009D200EF24FE600E14600F14601324037015C21E
:1009E200A5800DD2A58002C2A5D2A6D2A722D2A5E9
:0509F200C2A6D2A722FD
:100A3000E4FDFCC3ED9FEC9E500F790C7B32DBFE96
:090A4000D9FC0DBD00010C80EA97
:010A4900228A
:03001E0075230146
:10002100E522600302015CE524703A12077DE5498F
:1000310075F00A84ADF07F021207867D107F0312EE
:100041000786E54875F00A84FD7F04120786E548B6
:1000510075F00A84ADF07F051207867D107F0612C8
:100061000786020148E5246401704C7D107F03126C
:100071000786E54875F00A84FD7F04120786E54886
:1000810075F00A84ADF07F051207867D107F061298
:100091000786E54775F00A84FD7F07120786E54765
:1000A10075F00A84ADF07F08120786E546705A1292
:1000B100077DE5490201FBE5246402704F12077DCB
:1000C100E54975F00A84ADF07F021207867D107F45
:1000D100031207867D107F06120786E54775F00A31
:1000E10084FD7F07120786E54775F00A84ADF07F2E
:1000F10008120786E5467011E54875F00A84FD7F10
:1001010004120786E54802025A0202BC12077DE585
:100111004975F00A84ADF07F021207867D107F03D6
:10012100120786E54875F00A84FD7F04120786E50B
:100131004875F00A84ADF07F051207867D107F06B1
:10014100120786E5467011E54775F00A84FD7F07C1
:10015100120786E5470202B10202BCE521704AE5B9
:100161002712077FE52775F00A84ADF07F02120799
:10017100867D107F03120786E52B75F00A84FD7FCB
:1001810004120786E52B75F00A84ADF07F0512078E
:10019100867D107F06120786E52675F00A84FD7FAD
:1001A10007120786E5260202B1E521640170597D37
:1001B100107F03120786E52B75F00A84FD7F041278
:1001C1000786E52B75F00A84ADF07F051207867D61
:1001D100107F06120786E52675F00A84FD7F071257
:1001E1000786E52675F00A84ADF07F08120786E5DB
:1001F100467012E52712077FE52775F00A84ADF0F6
:100201007F020202B90202BCE52164027057E527B0
:1002110012077FE52775F00A84ADF07F0212078689
:100221007D107F031207867D107F06120786E52663
:1002310075F00A84FD7F07120786E52675F00A84AA
:10024100ADF07F08120786E5467018E52B75F00AB8
:1002510084FD7F04120786E52B75F00A84ADF07FDB
:100261000580558056E52712077FE52775F00A843A
:10027100ADF07F021207867D107F03120786E52B02
:1002810075F00A84FD7F04120786E52B75F00A8458
:10029100ADF07F051207867D107F06120786E546C1
:1002A1007019E52675F00A84FD7F07120786E52699
:1002B10075F00A84ADF07F080207867F031209D228
:0402C100E4F58022BE
:0F0AAD008F08AF081508EF600512001E80F422B5
:1004ED0020B0597F19120AAD20B05120B00512006D
:1004FD001E80F8E523700DC2ABC28EF54EF5287542
:10050D0023018038E522B4010DE4F5221209ACE493
:10051D00F524F5218005E4F5220524E52464016028
:10052D000BE52464026005E524B40305120A7D8001
:10053D000BE524B404061209ACE4F52420B1497F7F
:10054D0019120AAD20B14120B10875230112002105
:10055D0080F5E523700DC2ABC28EF54EF5287523DF
:10056D00018025E522700D7522011209ACE4F521FB
:10057D00F52480057522010521E521B4040A12092F
:10058D00ACE4F521F54ED2AB30B2030206197F195A
:10059D00120AAD20B27620B2087523011200218017
:1005AD00F5E523700DC2ABC28EF54EF5287523010E
:1005BD00805AE524B4010A0549E549B41803E4F568
:1005CD0049E524B4020A0548E548B43C03E4F5487E
:1005DD00E524B4030A0547E547B43C03E4F547E5D4
:1005ED0021B4010A0527E527B41803E4F527E52111
:1005FD00B4020A052BE52BB43C03E4F52BE521B43D
:10060D00030A0526E526B43C03E4F52630B30302C0
:10061D0006AE7F19120AAD30B3030206AE20B31D2C
:10062D00E52470F9E52170F51207F91204098E29F8
:10063D008F2A1207BE1208A112086C80E0E5237004
:10064D000CC2ABC28EF54EF52875230122E524B4FC
:10065D000109E54970037549181549E524B40209E6
:10066D00E548700375483C1548E524B40309E54792
:10067D00700375473C1547E521B40109E527700363
:10068D007527181527E521B40209E52B7003752B85
:10069D003C152BE521B40309E526700375263C15A1
:0206AD00262203
:100A7D00E4FD7F8E120A15E5474480FD7F80120A42
:080A8D00157D807F8E020A1521
:1009AC00E4FD7F8E120A15AD497F84120A15AD48FD
:1009BC007F82120A15E547547FFD7F80120A157D50
:0609CC00807F8E020A1577
:100A9500E4F589758C3C758AB0758D3C758BB0D243
:080AA500AFD2A9D2ABD28C2222
:03000B0002095D8A
:10095D00C0E0C0D075D000C0070525E525C39414AF
:10096D00400F752500E54670047F0180027F008FE2
:08097D0046D007D0D0D0E032D3
:03001B0002073B9E
:10073B00C0E0C0D075D000C007053E054EE53EC3F6
:10074B009404400F753E00E52870047F0180027F02
:10075B00008F28E54EC3946E4011754E007528002E
:10076B00752301C28E758D3C758BB0D007D0D0D060
:02077B00E0326A
:1007BE00E52A64347004E5296421602EAE29AF2A3F
:1007CE007C007D0A12048A7C007D0A12048A7F0650
:1007DE00120786AE29AF2A7C007D0A12048A7F0793
:0B07EE001207867D0C7F081207862290
:10086C00E549B5270FE548B52B0AE547B52605E45C
:10087C00F523D28EE5237012E528B4010B7580FFA9
:10088C007F011209D2C2802280007580FF7F011285
:05089C0009D2D2802208
:1008D200120A64E4FFC297E50AC313F50A30A303C0
:1008E200430A80D2970FBF08ECC2A3E50AC4540F93
:0F08F200FFE50A540FFEEF75F00AA42EF50AFF7A
:0109010022D3
:060A6400C293C297D29379
:100A6A00E4FEC297EF1392A3EFC313FFD2970EBE11
:020A7A0008F082
:010A7C002257
:100A1500120A64ED75F00A84C454F0FFED75F00A0E
:0A0A250084E5F02FFF120A6AC29365
:010A2F0022A4
:040ABC007F327E0007
:0B0AC000EF1FAC0670011E4C70F62208
:0209F700AD074A
:1009F900E4FBC294ED139294120ABCD294EDC31392
:0C0A0900FD0BBB08ED7F327E00020AC02E
:100A4A00E4FBC294EDC313FDD294309403430580B2
:090A5A00120ABC0BBB08EBAF054E
:010A63002270
:10098500C200D2947F787E00120AC0C2947F207E76
:1009950003120AC0D2947F647E00120AC0A2949208
:0609A50000120ABCA200D2
:0109AB002229
:1007F9001209857FCC1209F77F441209F71209857E
:100809007FCC1209F77FBE1209F7120A4AAA07120A
:100819000A4AEF5407FEEAFFFDAC06E41203D0E4EE
:09082900FBFA7980783D1202C54A
:0108320022A3
:1002C500EC4D6011E8497017ED33EC3304600DE433
:1002D500FCFFFEFD22E933E8330470F802047512D1
:1002E500044058046009E4CC2481500628500902D2
:1002F500047F28400302047CC0E0EB4A7044B980C7
:1003050006D0E0FB02046BEF4E701CBD8008EBFFCE
:10031500EAFEE9FD80EBE98DF0A4FEE5F00203AE0F
:10032500E9CDF9EAFEEBFFEF89F0A4FCE5F0CE8913
:10033500F0A42EFFE435F0CD89F0A42DFEE435F0D0
:100345008067EF4E7005BD80D780C3EF8BF0A4ACFE
:10035500F0EE8BF0A42CFCE435F0F8EF8AF0A42C39
:10036500E5F038FCE433CB8DF0A42CFCE5F03BF84C
:10037500EE8AF0A42CFCE5F038F8E433CF89F0A43C
:100385002CFCE5F038CF3400CE89F0A42FFFE5F042
:100395003EFEE433C98DF0A42EFEE5F039CD8AF09A
:1003A500A42FFFE5F03EFEE43DFD33D0E0FB500712
:1003B5000BBB000F02047FEC2CFCEF33FFEE33FE8A
:0603C500ED33FD020457B8
:1003CB0075F020800E75F010800575F0087D007EAD
:1003DB00007F003392D530D5031204DFEC3340108D
:1003EB00EF33FFEE33FEED33FDEC33FCD5F0ED22B6
:0E03FB00E5F0247EA2D513CC92E7CDCEFF22F2
:10040900EDD2E7CD33EC3392D524814006E4FFFEEB
:10041900FDFC22FCE4CFCECDCC24E0501174FF804A
:10042900EDC3CC13CCCD13CDCE13CECF13CF0470E7
:07043900F030D5DE0204DF04
:10044000E9D2E7C933E833F892D5EDD2E7CD33EC02
:0704500033FC5002B2D5227B
:10045700EC30E7100FBF000C0EBE00080DBD000406
:100467000BEB6014A2D5EB13FCED92E7FD2274FFB2
:10047700FCFDFEFF22E480F8A2D574FF13FC7D800B
:03048700E480EF1F
:030000000206AF46
:0C06AF00787FE4F6D8FD75814E0206F657
:10048A00BC000BBE0029EF8DF084FFADF022E4CC56
:10049A00F875F008EF2FFFEE33FEEC33FCEE9DEC1F
:1004AA00984005FCEE9DFE0FD5F0E9E4CEFD22ED65
:1004BA00F8F5F0EE8420D21CFEADF075F008EF2FAF
:1004CA00FFED33FD4007985006D5F0F222C398FDA0
:0504DA000FD5F0EA223D
:0E04DF00C3E49FFFE49EFEE49DFDE49CFC222E
:1006BB00020902E493A3F8E493A34003F68001F24A
:1006CB0008DFF48029E493A3F85407240CC8C33340
:1006DB00C4540F4420C8834004F456800146F6DF0F
:1006EB00E4800B0102040810204080900833E47E64
:1006FB00019360BCA3FF543F30E509541FFEE49304
:10070B00A360010ECF54C025E060A840B8E493A3CA
:10071B00FAE493A3F8E493A3C8C582C8CAC583CAF5
:10072B00F0A3C8C582C8CAC583CADFE9DEE780BEAD
:01086B00008C
:00000001FF
