:100431003F065B4F666D7D077F6F00400707030333
:1004410001020408102040808040201008040201AD
:0D045100814224181824428100050A0F146E
:10035D0008340A0A0A0A0A0A0A0A042E04040404C2
:10036D00C101C102C100C103C1040132010221005A
:10037D0000012300012400012500012600022700B1
:0D038D0000012900012B01012C00012D00B1
:10014100E4F58075A0A0F5A07580FF75A080F5A0ED
:100151001205077F011204018F2E7F021204018F05
:100161002F7F031204018F307F041204018F31E5C8
:100171002EC39404402BE52F94044025E5309404CC
:10018100401FE53194044019E52ED3940C5012E53B
:100191002F940C500CE530940C5006E531940C4032
:1001A1000C752E04752F047530047531043002234B
:1001B100C202120223200312E53C20E305E533309D
:1001C100E308753A0B85323B8009200306753A0A2C
:1001D100753B0A3000D7C20012039B8F08E508D394
:1001E1009445500575320180C4E508D39445400C0F
:1001F100E508D39483500575320280B1E508D394A4
:1002010083400CE508D394C15005753203809EE507
:1002110008D394C14097E508D394FF5090753204F8
:02022100808BD0
:10050700438E805389F0758ACD758CD4C28DD28C79
:05051700D2A9D2AF22C1
:03000B0002000EE2
:10000E00C0E0C0F0C083C082C0D075D000C000C0B8
:01001E0007DA
:10001F000523E523D3940A4005752300D202052654
:10002F00E526D394644005752600D20030031905E8
:10003F0028E52870020527D39420E527940340086C
:10004F00752700752800B2040524E524D3940140D8
:10005F003775240074342525F8E690043193F4F5B0
:10006F008075A0E075A000AF257401A80708800275
:10007F00C333D8FCF58075A0C075A0000525E52514
:10008F00D394074003752500052AE5329004599350
:10009F00FFE52AD39F5030E52B24FE601114601525
:1000AF001460192403702FE5299004418013E5296A
:1000BF00900449800CE5299004518005E5299004AE
:1000CF005593F4F580800FE52AC394135010E52A59
:1000DF009F400B7580FF75A08075A0008003752A67
:1000EF000020013F0522E52270020521742D252BEA
:1000FF00F8E675F064A4FFD3E5229FE52195F04063
:10010F00227521007522000529E52B90043C93FFF1
:10011F00E529D39F400D752900052BE52BB4050369
:03012F00752B012C
:0F013200D007D000D0D0D082D083D0F0D0E03230
:0B053C00E5B0F4FF65335FF53C8F3342
:010547002291
:1002230012053CE53C30E002B201E53C30E15A20E6
:100233000309E4F52CD203F52D8002052CE52CC32C
:1002430094024045E4F52CC20375340A75350A75EA
:10025300360A75370A75380A75390A753A0A753BCD
:100263000AAD2E7F011204B1120560AD2F7F021279
:1002730004B1120560AD307F031204B1120560AD05
:10028300317F041204B1120560300341E52C701470
:10029300FB7D03AF2D12048A8F2D1203CF30042D63
:1002A30075350A22742E252DF8E6FF7B047D0C128A
:1002B300048A742E252DF8A607AF2D1203CF300420
:0D02C3000C75380A75390A753A0A753B0A40
:0102D000220B
:10048A00E53C30E20E0FD3ED6480F8EF64809840CB
:10049A0002AF05E53C30E30E1FC3EB6480F8EF645E
:0604AA0080985002AF0330
:0104B0002229
:1003CF0075340BEF04F53575360B75370A742E2F10
:1003DF00F8E6FEC3940A500575380A8007EE75F0EB
:1003EF000A84F538EE75F00A8485F039E4F53AF5AC
:0203FF003B229F
:10039B00E4F50912052D7F9012045E12051C7F03F4
:1003AB0012045E12051C12055412052D7F911204C6
:1003BB005E12051C1204D38F09D2051204F012052C
:0303CB0054AF0923
:0103CE00220C
:1004B1008F098D0A12052D7FA012045E12051CAF53
:1004C1000912045E12051CAF0A12045E12051C0219
:0204D1000554D0
:020401008F0961
:1004030012052D7FA012045E12051CAF0912045EB3
:1004130012051C12052D7FA112045E12051C120485
:0D042300D38F0AD2051204F0120554AF0A5F
:0104300022A9
:0A05600000007F167E80DEFEDFFC47
:01056A00226E
:04054800D2A07F05B9
:08054C0000AE071FEE70F9225A
:0F052D00D2A1120548C2A17F0512054CC2A0221F
:0C055400C2A1120548D2A17F0502054C8F
:1004F000C2A0A20592A17F0512054C120548C2A018
:07050000D2A17F0502054CAA
:10051C00120548A2A19205C2A07F0512054CA205A6
:01052C0022AC
:02045E00AD07E8
:10046000E4FCC2A07F0512054CED30E704D2A18068
:1004700002C2A17F0512054CD2A0ED25E0FD7F054B
:0904800012054C0CBC08DBC2A003
:010489002250
:1004D300E4FC120548ED25E0FD30A103430501C20C
:0C04E300A07F0512054C0CBC08E8AF051A
:0104EF0022EA
:030000000202D128
:0C02D100787FE4F6D8FD75813C0203182C
:1002DD00020141E493A3F8E493A34003F68001F2F5
:1002ED0008DFF48029E493A3F85407240CC8C33322
:1002FD00C4540F4420C8834004F456800146F6DFF1
:10030D00E4800B010204081020408090035DE47E20
:10031D00019360BCA3FF543F30E509541FFEE493E5
:10032D00A360010ECF54C025E060A840B8E493A3AC
:10033D00FAE493A3F8E493A3C8C582C8CAC583CAD7
:10034D00F0A3C8C582C8CAC583CADFE9DEE780BE8F
:01039A000062
:00000001FF
