:1008F300C0F9A4B0999282F880908880C6C0868E91
:03090300BF7F8C27
:07095F00020B0019010D005D
:1007DA007F041207B5E4F5807F011207B57580FF23
:1007EA0012076FE4FBFA79C878421200FB1202DFA3
:0F07FA008E098F0A1205DA1208DB1203D580E18F
:1008DB00E50E700302063FE50EB40103020835E591
:0808EB000EB4020312069A226A
:1005DA001204A0E50DB40D0DE4F50D050EE50EB4FB
:1005EA000303E4F50EE50DB4090FE4F50DE5087013
:1005FA00047F0180027F008F08E50EB40136E50D05
:10060A00B40A16E4F50DD3E50C9462E50B94005098
:10061A0008050CE50C7002050BE50DB40E16E4F5A1
:10062A000DC3E50C9401E50B94004008E50C150C8C
:05063A007002150B2207
:1003D500E508703E7F011207B5C280E50A643470F6
:1003E50004E50964217003020488AE0BAF0C7C00A0
:1003F5007D64120360C3E50A9FE5099EE4500AF592
:1004050012F511F510F50F807AF512F5117510A09A
:10041500803E7F011207B5D280E50A64347004E599
:10042500096421605ED3E50A94D0E5099407500D6F
:10043500E4F512F511751080750F3F8046C3E50A86
:1004450094A0E509940F400DE4F512F5117510809F
:10045500750F40802EAC09AD0AE41202A6E4FBFA42
:1004650079C878421202047B9A7A997919783E12F2
:1004750000FBE4FBFAF978C012000A8F128E118D89
:10048500108C0FE4FFFE7D4C7C42AB12AA11A91023
:0B049500A80F1200FB1202DF02088318
:1006F1007C007D0A1203727C007D0A1203727F075F
:100701008F178D187F031207B5E4F580E51714FFE5
:100711007401A807088002C333D8FCF5807F021258
:1007210007B57580FFE5189008F39312074F7580A0
:02073100FF22A5
:0C07A9007F031207B5E4F5807580201F67
:1007B500EF24FE600E14600F14601324037015C23D
:1007C500A5800DD2A58002C2A5D2A6D2A722D2A508
:0507D500C2A6D2A7221C
:100733007C007D641203727C007D0A12037274F3E1
:100743002DF58274083CF583E493547FF5807F0193
:020753007E0026
:10075500E4FDFCC3ED9FEC9E500F790C7B32DBFE74
:09076500D9FC0DBD00010C80EA75
:01076E002268
:1004A000D2B4D2B5D2C2D2C4E4F51343B00FAF1365
:1004B0007401A807088002C333D8FCF452B020C4EA
:1004C0001D7F0A12090620C47820C4081208DB1216
:1004D00003D580F5E51325E025E004F50D2220C2C3
:1004E0001E7F0A12090620C25820C2081208DB1219
:1004F00003D580F5E51325E025E02402F50D222043
:10050000B51E7F0A12090620B53720B5081208DB90
:100510001203D580F5E51325E025E02403F50D222F
:1005200020B41E7F0A12090620B41620B40812084F
:10053000DB1203D580F5E51325E025E02404F50D55
:0D054000220513E513C3940450030204AB1D
:01054D00228B
:100906008F14AF141514EF60081208DB1203D5809C
:02091600F122CC
:10063F007F011207B5C281D282D2837D0C120701CE
:10064F00E50A64347004E5096421603EAE09AF0A1F
:10065F007C037DE81203727C007D0A1203727F0512
:10066F001207011207A97580FFAE09AF0A120733EF
:10067F007580FFAE09AF0A1206F1AE09AF0A7C0012
:0B068F007D0A1203727F08120701228F
:100835007F011207B5D281C282D2837D12120701D0
:10084500AE0BAF0C1206F1AE0BAF0C7C007D0A129D
:0708550003727F0802070196
:10069A00E4F515F5167F011207B5D281D282C2831D
:1006AA00E41FFE7DC87C42AB12AA11A910A80F1242
:1006BA0000FB1202DF8E158F167D0A7F01120701D9
:1006CA001207A97580FFAE15AF161207337580FFA2
:1006DA00AE15AF161206F1AE15AF167C007D0A12E2
:0706EA0003727F0802070103
:100883008F151209297F901208091209187F401247
:100893000809120918AF1512080912091802095399
:04094700D2A07F05B6
:08094B0000AE071FEE70F92257
:0F092900D2A1120947C2A17F0512094BC2A02219
:0C095300C2A1120947D2A17F0502094B86
:10091800120947A2A19200C2A07F0512094BA200AA
:0109280022AC
:02080900AD0739
:10080B00E4FCC2A07F0512094BED30E704D2A180B6
:10081B0002C2A17F0512094BD2A0ED25E0FD7F0599
:09082B0012094B0CBC08DBC2A051
:0108340022A1
:040938007F327E008C
:0B093C00EF1FAC0670011E4C70F6228D
:0208A300AD079F
:1008A500E4FBC294ED139294120938D294EDC3136C
:0C08B500FD0BBB08ED7F327E0002093C09
:1008C100E4FBC294EDC313FDD2943094034305803D
:0908D1001209380BBB08EBAF055E
:0108DA0022FB
:10085C00C200D2947F787E0012093CC2947F207E25
:10086C000312093CD2947F647E0012093CA294923C
:06087C0000120938A20081
:010882002253
:10076F0012085C7FCC1208A37F441208A312085C06
:10077F007FCC1208A37FBE1208A31208C1AA0712CA
:10078F0008C1EF540FFEEAFFFDAC06E41202A6E427
:09079F00FBFA7980783D1200FBA1
:0107A800222E
:1000030002034BE86480F8E933E83360110460F0DD
:10001300ED33EC337009E8FCE9FDEAFEEBFF220463
:1000230060DED3EB9FEA9EE99DE8C2E78CF0C2F75E
:1000330095F0400CE8CCF8E9CDF9EACEFAEBCFFB2A
:1000430012031685D0F05804700320D5B3E804706A
:10005300075002B2D502035592D5EC0460F7E4CC05
:10006300C0E0C398F8603B94186008400DD0E0FBF3
:1000730002032DE4FBFAC9FC8028E830E406E4C956
:10008300FBE4CAFCE830E305E4C9CACBFCE8540747
:100093006010F8C3E913F9EA13FAEB13FBEC13FC52
:1000A300D8F130F52FC3E49CFCEF9BFFEE9AFEEDF5
:1000B30099FDD0E0FBEF4E4D4C701222DB0302039F
:1000C30052EC2CFCEF33FFEE33FEED33FDED30E766
:1000D300EB02032DEF2BFFEE3AFEED39FDD0E0FBF3
:1000E30050130BBB0003020355ED13FDEE13FEEF9C
:0800F30013FFEC13FC02032DC6
:1000FB00EC4D6011E8497017ED33EC3304600DE4FF
:10010B00FCFFFEFD22E933E8330470F802034B12C7
:10011B00031658046009E4CC2481500628500902C8
:10012B000355284003020352C0E0EB4A7044B980E8
:10013B0006D0E0FB020341EF4E701CBD8008EBFFC5
:10014B00EAFEE9FD80EBE98DF0A4FEE5F00201E4A7
:10015B00E9CDF9EAFEEBFFEF89F0A4FCE5F0CE89DF
:10016B00F0A42EFFE435F0CD89F0A42DFEE435F09C
:10017B008067EF4E7005BD80D780C3EF8BF0A4ACCA
:10018B00F0EE8BF0A42CFCE435F0F8EF8AF0A42C05
:10019B00E5F038FCE433CB8DF0A42CFCE5F03BF818
:1001AB00EE8AF0A42CFCE5F038F8E433CF89F0A408
:1001BB002CFCE5F038CF3400CE89F0A42FFFE5F00E
:1001CB003EFEE433C98DF0A42EFEE5F039CD8AF066
:1001DB00A42FFFE5F03EFEE43DFD33D0E0FB5007DE
:1001EB000BBB000F020355EC2CFCEF33FFEE33FE81
:0601FB00ED33FD02032DAF
:10020100020355EC5D046005E85904700302034BD9
:10021100120316580460F6EC4860F2EC7004FDFE1F
:10022100FF22C860DB2481C85009C39860025006D0
:100231000203529850CAF582E9294B4A7005AB82F4
:1002410002034175F0007C1A7880C3EF9BEE9AEDB2
:1002510099400DC3EF9BFFEE9AFEED99FDE842F048
:10026100DC23ACF0D0E0FFD0E0FED0E0FDAB82209B
:10027100E7101BEB60BAEC2CFCEF33FFEE33FEED25
:1002810033FD02032DE803F830E705C0F075F000F7
:10029100EF2FFFEE33FEED33FD40B830E7C280AA09
:1002A10075F020800E75F010800575F0087D007ED8
:1002B100007F003392D530D5031203C7EC334010D1
:1002C100EF33FFEE33FEED33FDEC33FCD5F0ED22E1
:0E02D100E5F0247EA2D513CC92E7CDCEFF221D
:1002DF00EDD2E7CD33EC3392D524814006E4FFFE17
:1002EF00FDFC22FCE4CFCECDCC24E0501174FF8076
:1002FF00EDC3CC13CCCD13CDCE13CECF13CF047013
:07030F00F030D5DE0203C748
:10031600E9D2E7C933E833F892D5EDD2E7CD33EC2D
:0703260033FC5002B2D522A6
:10032D00EC30E7100FBF000C0EBE00080DBD000431
:10033D000BEB6014A2D5EB13FCED92E7FD2274FFDD
:10034D00FCFDFEFF22E480F8A2D574FF13FC7D8036
:03035D00E480EF4A
:0300000002054EA8
:0C054E00787FE4F6D8FD75812002059549
:10036000EF8DF0A4A8F0CF8CF0A428CE8DF0A42EB1
:02037000FE226B
:10037200BC000BBE0029EF8DF084FFADF022E4CC6F
:10038200F875F008EF2FFFEE33FEEC33FCEE9DEC38
:10039200984005FCEE9DFE0FD5F0E9E4CEFD22ED7E
:1003A200F8F5F0EE8420D21CFEADF075F008EF2FC8
:1003B200FFED33FD4007985006D5F0F222C398FDB9
:0503C2000FD5F0EA2256
:0E03C700C3E49FFFE49EFEE49DFDE49CFC2247
:10055A000207DAE493A3F8E493A34003F68001F2D6
:10056A0008DFF48029E493A3F85407240CC8C333A2
:10057A00C4540F4420C8834004F456800146F6DF71
:10058A00E4800B010204081020408090095FE47E99
:10059A00019360BCA3FF543F30E509541FFEE49366
:1005AA00A360010ECF54C025E060A840B8E493A32D
:1005BA00FAE493A3F8E493A3C8C582C8CAC583CA58
:1005CA00F0A3C8C582C8CAC583CADFE9DEE780BE10
:010966000090
:00000001FF
