:10072700C0F9A4B0999282F880908880C6C0868E5E
:02073700BF7F82
:10073900020C001E020A00140211001E020F00140E
:10061E007F04120695E4F5807F011206957580FF22
:10062E0012074A1205E41201528E148F1512024857
:08063E001203A51206D880EB9F
:1006D800308C17E5137F0170091206957580FFC2EB
:0B06E80080221206957580FFD2802250
:1003A500E515645545147003020490E50E7060D39D
:1003B500E50B950DE50A950C5055C3E515950BE52F
:1003C50014950A5008E4F5097518108042C3E5151F
:1003D500950BE514950A4013D3E515950DE5149590
:1003E5000C50087509017518088024D3E515950D7D
:1003F500E514950C4019750902751804308C107FA9
:1004050004120695D284C2867F01120695D286E52E
:1004150008702C7D107F011205ACE50964036004AA
:10042500AD0980027D0F7F021205AC7D107F03129E
:1004350005ACAE14AF1512059CAE14AF1580407D0A
:10044500107F011205AC7D107F061205ACAE0CAF16
:100455000D7C007D0A1201E57C007D0A1201E57F15
:10046500021205ACAE0CAF0D7C007D0A1201E57FD2
:10047500031205ACAE0AAF0B12059CAE0AAF0B7C9E
:0C048500007D0A1201E57F081205AC2280
:10074A00E4F589758C3C758AB0D2AFD2A9D28C22D5
:03000B00020646A4
:10064600C0E0C0D075D000C0070516E516C39518E2
:10065600400F751600E51370047F0180027F008F3E
:0806660013D007D0D0D0E03220
:1002480012051DE517640B7040F517E50870047F6B
:100258000180027F008F08E4F50EE508B4012585CA
:100268000C11850D12850A0F850B10C28CE4F5164A
:100278007F04120695C284C2867F01120695758096
:10028800FF020378D28C020378E517B40C1DE4F55D
:1002980017E5086401600302037885110C85120DC7
:1002A800850F0A85100BF50E020378E51770030217
:1002B8000378F519E4F517E508640160030203788B
:1002C800050EE50EC394054003750E42E50EB40114
:1002D80025E51924FFFFE434FFFE7C007D0A1201A6
:1002E800D3AA06AB07AE0CAF0D1201E5EB2DF50D49
:1002F800EA3CF50C807AE50EB40224AE0CAF0D7C16
:10030800007D0A1201E57C007D0A1201D3E519245B
:10031800FFFDEC34FFCD2FF50DED3EF50C8051E5DA
:100328000EB40325E51924FFFFE434FFFE7C007DAD
:100338000A1201D3AA06AB07AE0AAF0B1201E5EB0E
:100348002DF50BEA3CF50A8027E50EB40422AE0A27
:10035800AF0B7C007D0A1201E57C007D0A1201D3F7
:10036800E51924FFFDEC34FFCD2FF50BED3EF50A22
:10037800E50E7028D3E50B950DE50A950C4013C2E0
:100388008CE4F5167F011206957580FFC281750908
:0C03980003227F011206957580FFD281C0
:0103A4002236
:10051D00D2B5D2C2D2C4E4F51A43B00FAF1A7401EA
:10052D00A807088002C333D8FCF452B020C41A7F48
:10053D001412075A20C44E20C4051203A580F8E5F5
:10054D001A75F003A404F5172220C21B7F1412079D
:10055D005A20C23120C2051203A580F8E51A75F0A4
:10056D0003A42402F5172220B51B7F1412075A206D
:10057D00B51320B5051203A580F8E51A75F003A48F
:0E058D002403F51722051AE51AC39404408BC7
:01059B00223D
:10059C007C007D0A1201E57C007D0A1201E57F07D3
:1005AC008F1C8D1D7F03120695E4F580E51C14FF4E
:1005BC007401A807088002C333D8FCF5807F0212AF
:1005CC0006957580FFE51D90072793F5807F017ECA
:0805DC00001206F37580FF22F6
:10069500EF24FE600E14600F14601324037015C25E
:1006A500A5800DD2A58002C2A5D2A6D2A722D2A529
:0506B500C2A6D2A7223D
:1006F300E4FDFCC3ED9FEC9E500F790C7B32DBFED7
:09070300D9FC0DBD00010C80EAD7
:01070C0022CA
:0F075A008F1BAF1B151BEF60051203A580F42248
:040769007F327E005D
:0B076D00EF1FAC0670011E4C70F6225E
:0206BA00AD078A
:1006BC00E4FBC294ED139294120769D294EDC31328
:0C06CC00FD0BBB08ED7F327E0002076DC5
:10070D00E4FBC294EDC313FDD294309403430580F2
:09071D001207690BBB08EBAF05E4
:0107260022B0
:10066E00C200D2947F787E0012076DC2947F207EE6
:10067E000312076DD2947F647E0012076DA29492CE
:06068E0000120769A20042
:010694002243
:1005E40012066E7FCC1206BA7F441206BA12066E49
:1005F4007FCC1206BA7FBE1206BA12070DAA0712E2
:10060400070DEF5407FEEAFFFDAC06E4120119E4FE
:09061400FBFA7980783D12000E1A
:01061D0022BA
:10000E00EC4D6011E8497017ED33EC3304600DE4EC
:10001E00FCFFFEFD22E933E8330470F80201BE1244
:10002E00018958046009E4CC248150062850090245
:10003E0001C82840030201C5C0E0EB4A7044B980F4
:10004E0006D0E0FB0201B4EF4E701CBD8008EBFF42
:10005E00EAFEE9FD80EBE98DF0A4FEE5F00200F783
:10006E00E9CDF9EAFEEBFFEF89F0A4FCE5F0CE89CD
:10007E00F0A42EFFE435F0CD89F0A42DFEE435F08A
:10008E008067EF4E7005BD80D780C3EF8BF0A4ACB8
:10009E00F0EE8BF0A42CFCE435F0F8EF8AF0A42CF3
:1000AE00E5F038FCE433CB8DF0A42CFCE5F03BF806
:1000BE00EE8AF0A42CFCE5F038F8E433CF89F0A4F6
:1000CE002CFCE5F038CF3400CE89F0A42FFFE5F0FC
:1000DE003EFEE433C98DF0A42EFEE5F039CD8AF054
:1000EE00A42FFFE5F03EFEE43DFD33D0E0FB5007CC
:1000FE000BBB000F0201C8EC2CFCEF33FFEE33FEFE
:06010E00ED33FD0201A02B
:1001140075F020800E75F010800575F0087D007E66
:10012400007F003392D530D50312023AEC334010ED
:10013400EF33FFEE33FEED33FDEC33FCD5F0ED226F
:0E014400E5F0247EA2D513CC92E7CDCEFF22AB
:10015200EDD2E7CD33EC3392D524814006E4FFFEA5
:10016200FDFC22FCE4CFCECDCC24E0501174FF8004
:10017200EDC3CC13CCCD13CDCE13CECF13CF0470A1
:07018200F030D5DE02023A65
:10018900E9D2E7C933E833F892D5EDD2E7CD33ECBC
:0701990033FC5002B2D52235
:1001A000EC30E7100FBF000C0EBE00080DBD0004C0
:1001B0000BEB6014A2D5EB13FCED92E7FD2274FF6C
:1001C000FCFDFEFF22E480F8A2D574FF13FC7D80C5
:0301D000E480EFD9
:0300000002049166
:0C049100787FE4F6D8FD7581200204D8C5
:1001D300EF8DF0A4A8F0CF8CF0A428CE8DF0A42E40
:0201E300FE22FA
:1001E500BC000BBE0029EF8DF084FFADF022E4CCFE
:1001F500F875F008EF2FFFEE33FEEC33FCEE9DECC7
:10020500984005FCEE9DFE0FD5F0E9E4CEFD22ED0C
:10021500F8F5F0EE8420D21CFEADF075F008EF2F56
:10022500FFED33FD4007985006D5F0F222C398FD47
:050235000FD5F0EA22E4
:0E023A00C3E49FFFE49EFEE49DFDE49CFC22D5
:10049D0002061EE493A3F8E493A34003F68001F251
:1004AD0008DFF48029E493A3F85407240CC8C33360
:1004BD00C4540F4420C8834004F456800146F6DF2F
:1004CD00E4800B0102040810204080900739E47E7F
:1004DD00019360BCA3FF543F30E509541FFEE49324
:1004ED00A360010ECF54C025E060A840B8E493A3EB
:1004FD00FAE493A3F8E493A3C8C582C8CAC583CA16
:10050D00F0A3C8C582C8CAC583CADFE9DEE780BECD
:0107490000AF
:00000001FF
