:1006F400391E0805010316C0F9A4B0999282F88046
:09070400908880C6C0868EBF7F7C
:0307A40001083217
:1004F4007F0412063BE4F5807F0112063B7580FF02
:10050400E4FF1205278F081205B51205E21203BE97
:100514008F0D1202761207661207261204B1120515
:030524008780E7E6
:1004B100E50B64017015E50A7F04B4010712063BE0
:1004C100D284802912063BC2848022E50C7017E594
:1004D1000DC395087F04500712063BD28480051294
:1004E100063BC28480077F0412063BC284C2865346
:0304F100A01F2227
:10058700E50B6401701DE5097010E50DC395085072
:100597001C7F0412063BD28680107F0412063BC2E2
:0E05A7008680077F0412063BC28653A01F22E7
:10072600E50B7F01700912063B7580FFC28022121D
:08073600063B7580FFC2812221
:10076600E50B7008E50CB401030206821204182298
:10041800E51075F00A8475F00A84ADF07F011204C6
:1004280079E51075F00A84ADF07F021204797D1029
:100438007F03120479E50F75F00A8475F00A84AD1C
:10044800F07F04120479E50F75F00A84ADF07F059A
:10045800120479E50D12046DE50D75F00A84ADF00E
:050468007F0802047989
:100682007D107F011204797D107F02120479E50842
:1006920012046DE50875F00A84ADF07F0802047952
:1005B500751680E4FD7F8E1206BFE4F515E51590EE
:1005C50006F493FDAF161206BF051605160515E5CB
:0D05D50015C3940740E77D807F8E0206BFAE
:1005E200751681E4FD7F8E1206BFE4F515AF161273
:1005F2000557740E2515F8A607051605160515E507
:0D06020015C3940740E77D807F8E0206BF80
:0C046D0075F00A8475F00A84ADF07F077A
:100479008F158D167F0312063BE4F580E51514FFF1
:100489007401A807088002C333D8FCF5807F0212E3
:10049900063B7580FFE5169006FB93F5807F017E8C
:0804A900001206DA7580FF2243
:10063B00EF24FE600E14600F14601324037015C2B8
:10064B00A5800DD2A58002C2A5D2A6D2A722D2A583
:05065B00C2A6D2A72297
:1006DA00E4FDFCC3ED9FEC9E500F790C7B32DBFEF0
:0906EA00D9FC0DBD00010C80EAF1
:0106F30022E4
:07079D00AE071FEE70FA2207
:1002760020B0247F1412079D20B01C20B005120761
:100286006680F8E50B70047F0180027F008F0BE526
:100296000BB40103E4F50C20B12E7F1412079D2048
:1002A600B12620B10512076680F8E50B700EE50C45
:1002B60070047F0180027F008F0C800CE5097004BA
:1002C6007F0180027F008F0920B22F7F1412079DC5
:1002D60020B22720B20512076680F8E50BB40105A7
:1002E600750A018015E50CB40109E508D39462503E
:1002F600020508AD08E4FF12066020B32E7F141233
:10030600079D20B32620B30512076680F8E50BB4D7
:100316000104E4F50A22E50CB40109E508C39401D9
:0C03260040021508AD08E4FF120660223A
:1003BE00E4F5151207767F9012060F1207557F038C
:1003CE0012060F1207551207911207767F91120629
:1003DE000F1207551206A28F15D20012073E1207F2
:1003EE0091AC15E41201B3E4FBFA79A07840120047
:1003FE0003E4FBFA797F784312010C7B667A667907
:09040E009E78411200031201E77F
:0104170022C2
:100660008F158D161207767FA012060F120755AF51
:100670001512060F120755AF1612060F1207550274
:020680000791E0
:020527008F152E
:100529001207767FA012060F120755AF1512060F94
:100539001207551207767FA112060F1207551206E8
:0D054900A28F16D20012073E120791AF16C6
:010556002282
:1005570012070DE4FFC297E517C313F51730A3037E
:10056700431780D2970FBF08ECC2A3E517C4540FF7
:0F057700FFE517540FFEEF75F00AA42EF517FFDE
:010586002252
:06070D00C293C297D293D3
:10071300E4FEC297EF1392A3EFC313FFD2970EBE6B
:0207230008F0DC
:0107250022B1
:1006BF0012070DED75F00A84C454F0FFED75F00AC2
:0A06CF0084E5F04FFF120713C293F9
:0106D90022FE
:04078500D2A07F057A
:0807890000AE071FEE70F9221B
:0F077600D2A1120785C2A17F05120789C2A02256
:0C079100C2A1120785D2A17F05020789D2
:10073E00C2A0A20092A17F05120789120785C2A04E
:07074E00D2A17F050207891B
:10075500120785A2A19200C2A07F05120789A200F7
:010765002271
:02060F00AD0735
:10061100E4FCC2A07F05120789ED30E704D2A18076
:1006210002C2A17F05120789D2A0ED25E0FD7F0559
:090631001207890CBC08DBC2A011
:01063A00229D
:1006A200E4FC120785ED25E0FD30A103430501C2FC
:0C06B200A07F051207890CBC08E8AF050A
:0106BE002219
:10000300EC4D6011E8497017ED33EC3304600DE4F7
:10001300FCFFFEFD22E933E8330470F802025312B9
:10002300021E58046009E4CC2481500628500902BA
:10003300025D28400302025AC0E0EB4A7044B980D3
:1000430006D0E0FB020249EF4E701CBD8008EBFFB7
:10005300EAFEE9FD80EBE98DF0A4FEE5F00200EC99
:10006300E9CDF9EAFEEBFFEF89F0A4FCE5F0CE89D8
:10007300F0A42EFFE435F0CD89F0A42DFEE435F095
:100083008067EF4E7005BD80D780C3EF8BF0A4ACC3
:10009300F0EE8BF0A42CFCE435F0F8EF8AF0A42CFE
:1000A300E5F038FCE433CB8DF0A42CFCE5F03BF811
:1000B300EE8AF0A42CFCE5F038F8E433CF89F0A401
:1000C3002CFCE5F038CF3400CE89F0A42FFFE5F007
:1000D3003EFEE433C98DF0A42EFEE5F039CD8AF05F
:1000E300A42FFFE5F03EFEE43DFD33D0E0FB5007D7
:1000F3000BBB000F02025DEC2CFCEF33FFEE33FE73
:06010300ED33FD020235A0
:1001090002025DEC5D046005E859047003020253C4
:1001190012021E580460F6EC4860F2EC7004FDFE11
:10012900FF22C860DB2481C85009C39860025006C9
:1001390002025A9850CAF582E9294B4A7005AB82E6
:1001490002024975F0007C1A7880C3EF9BEE9AEDA4
:1001590099400DC3EF9BFFEE9AFEED99FDE842F041
:10016900DC23ACF0D0E0FFD0E0FED0E0FDAB822094
:10017900E7101BEB60BAEC2CFCEF33FFEE33FEED1E
:1001890033FD020235E803F830E705C0F075F000E9
:10019900EF2FFFEE33FEED33FD40B830E7C280AA02
:1001A90075F020800E75F010800575F0087D007ED1
:1001B900007F003392D530D503120268EC3340102A
:1001C900EF33FFEE33FEED33FDEC33FCD5F0ED22DA
:0E01D900E5F0247EA2D513CC92E7CDCEFF2216
:1001E700EDD2E7CD33EC3392D524814006E4FFFE10
:1001F700FDFC22FCE4CFCECDCC24E0501174FF806F
:10020700EDC3CC13CCCD13CDCE13CECF13CF04700B
:07021700F030D5DE020268A1
:10021E00E9D2E7C933E833F892D5EDD2E7CD33EC26
:07022E0033FC5002B2D5229F
:10023500EC30E7100FBF000C0EBE00080DBD00042A
:100245000BEB6014A2D5EB13FCED92E7FD2274FFD6
:10025500FCFDFEFF22E480F8A2D574FF13FC7D802F
:03026500E480EF43
:03000000020332C6
:0C033200787FE4F6D8FD75812002037985
:0E026800C3E49FFFE49EFEE49DFDE49CFC22A7
:10033E000204F4E493A3F8E493A34003F68001F2DD
:10034E0008DFF48029E493A3F85407240CC8C333C0
:10035E00C4540F4420C8834004F456800146F6DF8F
:10036E00E4800B01020408102040809007A4E47E74
:10037E00019360BCA3FF543F30E509541FFEE49384
:10038E00A360010ECF54C025E060A840B8E493A34B
:10039E00FAE493A3F8E493A3C8C582C8CAC583CA76
:1003AE00F0A3C8C582C8CAC583CADFE9DEE780BE2E
:0107A7000051
:00000001FF
