:10061F00C0F9A4B0999282F880908880C6C0868E67
:03062F00BF7F8CFE
:1005F00001130101140002080000020B0000010DAC
:0806000001011214020E0000BA
:100508007F0412055DE4F5807F0112055D7580FFAB
:100518001206321204CE1201528E108F11120236B8
:0E0528001204561206091202D01205A080E538
:10045600E50D7030E50AD394004029E513B4010B8D
:100466007F0112055D7580FFC28022E5137F01B40E
:10047600020912055D7580FFC2812212055D758035
:0D048600FFC282227F0112055D7580FF22FA
:1002360020B2397F1412064220B23120B2051202D2
:10024600D080F8743C250FF50FE4350EF50EE50F5A
:1002560064B4450E7004F50EF50FE4F508F509F5DE
:100266000BF50CE50F450E6003E4F50D20B31C7F7E
:100276001412064220B31420B3051202D080F805EA
:1002860013E513C39404400375130120B11C7F14B6
:1002960012064220B11420B1051202D080F8E4F50E
:1002A60008F509F50BF50C750D0120B01C7F14122D
:1002B600064220B01420B0051202D080F8E5167070
:0A02C600047F0180027F008F1622E2
:1002D000E5167D107F01704612049A7D107F03128F
:1002E000049AAD137F0212049AAF0A7E007C037D4C
:1002F000E81201D37C007D0A1201D37F0512049A13
:10030000E50A75F0647F06120493E50A75F00A7F2A
:1003100007120493E50A75F00A84ADF0803A1204DE
:100320009A7D107F0312049A7D047F0212049AAE14
:1003300010AF117C007D0A1201D37C007D0A1201EE
:10034000D37F0612049AAE10AF117C007D0A120111
:0E035000D37F0712049A7D0C7F0812049A22B4
:10060900E513B4010475121422E513B4020475123A
:060619001E2275124622AC
:1005A000E50D7012C3E50F950CF50AE515B40103CE
:0C05B000D2B422C2B422E4F50AC2B42284
:10055D00EF24FE600E14600F14601324037015C297
:10056D00A5800DD2A58002C2A5D2A6D2A722D2A562
:05057D00C2A6D2A72276
:10063200E4F589758CFF758AF6D2AFD2A9D28C22E5
:03000B000203EA03
:1003EA00C0E0C0D00514E5146464704CF514E50F40
:1003FA00450E60320509E50970020508C394E8E56F
:10040A000894034033750800750900050CE50C7063
:10041A0002050B950FE50B950E401D750B00750C2B
:10042A0000750D018012750800750900750B0075BD
:10043A000C00750D01750A00E514C3951250057577
:0C044A0015018003751500D0D0D0E03201
:0F0642008F17AF171517EF60051202D080F42243
:1005BC00E4FDFCC3ED9FEC9E500F790C7B32DBFE0F
:0905CC00D9FC0DBD00010C80EA10
:0105D5002203
:070493008475F00A84ADF04E
:10049A00AE077F0312055DE4F580EE14FF7401A830
:1004AA0007088002C333D8FCF5807F0212055D7508
:1004BA0080FFED90061F93F5807F017E001205BC38
:0404CA007580FF2218
:040651007F327E0076
:0B065500EF1FAC0670011E4C70F62277
:02058200AD07C3
:10058400E4FBC294ED139294120651D294EDC3137A
:0C059400FD0BBB08ED7F327E0002065517
:1005D600E4FBC294EDC313FDD2943094034305802B
:0905E6001206510BBB08EBAF0536
:0105EF0022E9
:10053600C200D2947F787E00120655C2947F207E38
:1005460003120655D2947F647E00120655A2949239
:0605560000120651A20094
:01055C00227C
:1004CE001205367FCC1205827F4412058212053644
:1004DE007FCC1205827FBE1205821205D6AA0712A4
:1004EE0005D6EF5407FEEAFFFDAC06E4120119E44F
:0904FE00FBFA7980783D12000E32
:0105070022D1
:10000E00EC4D6011E8497017ED33EC3304600DE4EC
:10001E00FCFFFEFD22E933E8330470F80201BE1244
:10002E00018958046009E4CC248150062850090245
:10003E0001C82840030201C5C0E0EB4A7044B980F4
:10004E0006D0E0FB0201B4EF4E701CBD8008EBFF42
:10005E00EAFEE9FD80EBE98DF0A4FEE5F00200F783
:10006E00E9CDF9EAFEEBFFEF89F0A4FCE5F0CE89CD
:10007E00F0A42EFFE435F0CD89F0A42DFEE435F08A
:10008E008067EF4E7005BD80D780C3EF8BF0A4ACB8
:10009E00F0EE8BF0A42CFCE435F0F8EF8AF0A42CF3
:1000AE00E5F038FCE433CB8DF0A42CFCE5F03BF806
:1000BE00EE8AF0A42CFCE5F038F8E433CF89F0A4F6
:1000CE002CFCE5F038CF3400CE89F0A42FFFE5F0FC
:1000DE003EFEE433C98DF0A42EFEE5F039CD8AF054
:1000EE00A42FFFE5F03EFEE43DFD33D0E0FB5007CC
:1000FE000BBB000F0201C8EC2CFCEF33FFEE33FEFE
:06010E00ED33FD0201A02B
:1001140075F020800E75F010800575F0087D007E66
:10012400007F003392D530D503120228EC334010FF
:10013400EF33FFEE33FEED33FDEC33FCD5F0ED226F
:0E014400E5F0247EA2D513CC92E7CDCEFF22AB
:10015200EDD2E7CD33EC3392D524814006E4FFFEA5
:10016200FDFC22FCE4CFCECDCC24E0501174FF8004
:10017200EDC3CC13CCCD13CDCE13CECF13CF0470A1
:07018200F030D5DE02022877
:10018900E9D2E7C933E833F892D5EDD2E7CD33ECBC
:0701990033FC5002B2D52235
:1001A000EC30E7100FBF000C0EBE00080DBD0004C0
:1001B0000BEB6014A2D5EB13FCED92E7FD2274FF6C
:1001C000FCFDFEFF22E480F8A2D574FF13FC7D80C5
:0301D000E480EFD9
:0300000002035E9A
:0C035E00787FE4F6D8FD7581200203A52D
:1001D300BC000BBE0029EF8DF084FFADF022E4CC10
:1001E300F875F008EF2FFFEE33FEEC33FCEE9DECD9
:1001F300984005FCEE9DFE0FD5F0E9E4CEFD22ED1F
:10020300F8F5F0EE8420D21CFEADF075F008EF2F68
:10021300FFED33FD4007985006D5F0F222C398FD59
:050223000FD5F0EA22F6
:0E022800C3E49FFFE49EFEE49DFDE49CFC22E7
:10036A00020508E493A3F8E493A34003F68001F29C
:10037A0008DFF48029E493A3F85407240CC8C33394
:10038A00C4540F4420C8834004F456800146F6DF63
:10039A00E4800B01020408102040809005F0E47EFE
:1003AA00019360BCA3FF543F30E509541FFEE49358
:1003BA00A360010ECF54C025E060A840B8E493A31F
:1003CA00FAE493A3F8E493A3C8C582C8CAC583CA4A
:1003DA00F0A3C8C582C8CAC583CADFE9DEE780BE02
:0106080000F1
:00000001FF
