:1007F800C0F9A4B0999282F880908880C6C0868E8D
:03080800BF7FC1EE
:0B083A00010A00021400000208000088
:1005CD007F04120726E4F5807F011207267580FF50
:1005DD001207C7120661AC07E41201CEE4FBFA79EB
:1005ED00A0784012001EE4FBFA797F7843120127B0
:1005FD00E4FBFA79C8784212001E1202028E118FA6
:10060D001212069512048F12040D12050C1206C853
:02061D0080C19A
:10050C00E510705AE50B7F017007120726D2808028
:10051C0005120726C280E50C7F017007120726D250
:10052C00818005120726C281E50D7F017007120735
:10053C0026D2828005120726C282E50E7F01700743
:10054C00120726D2838005120726C283E50F7F018E
:10055C007006120726D28422120726C284227F013B
:0E056C00120726D280D281D282D283D284227C
:10061F007C007D0A1202837C007D0A1202837F0711
:10062F008F198D1A7F03120726E4F580E51914FF41
:10063F007401A807088002C333D8FCF5807F02122B
:10064F0007267580FFE51A9007F89312074B758000
:02065F00FF2278
:10072600EF24FE600E14600F14601324037015C2CC
:10073600A5800DD2A58002C2A5D2A6D2A722D2A597
:05074600C2A6D2A722AB
:10040D00C3E5129496E51194005002802CC3E512B9
:10041D009496E5119400400CE51294FAE5119400C0
:10042D005002801AC3E51294FAE5119400400FE5CD
:10043D0012945EE51194015005E4F50D8003750DE0
:10044D0001C3E50994E8E50894035002802CC3E547
:10045D000994E8E5089403400CE5099488E50894AF
:10046D001350028019C3E5099488E5089413400ED2
:10047D00E5099410E50894275004E4F50E22750E55
:02048D0001224A
:06074B00F5807F017E0035
:10075100E4FDFCC3ED9FEC9E500F790C7B32DBFE78
:09076100D9FC0DBD00010C80EA79
:01076A00226C
:1007C700758904758AFF758CFF758BB0758D3CD262
:0A07D700AFD2A9D2ABD28CD28E2291
:03000B0002000EE2
:0D000E00C0E00515E51570020514D0E032C4
:03001B0002078B4E
:10078B00C0E0C0D0050AE50AB4140F85140885151E
:0F079B0009750A00751400751500D0D0D0E03232
:1002E6007D0F7F0112062FD3E509940FE5089427A9
:1002F6004017AE08AF097C277D101202837C007D73
:100306000A1202837F0412062FD3E50994E7E50853
:1003160094034017AE08AF097C037DE81202837C84
:10032600007D0A1202837F0512062FD3E509946326
:10033600E50894004017AE08AF097C007D64120200
:10034600837C007D0A1202837F0612062FD3E509FD
:100356009409E50894004007AE08AF0912061FD3BA
:10036600E5099400E50894004010AE08AF097C004A
:0B0376007D0A1202837F0812062F226E
:1006C800E5167018E517700A12057A750B01E4F53E
:1006D8000C221202E6E4F50B750C01227F031207C7
:1006E80026E4F5801F1207267580FF1F7E0012077B
:0206F80051228D
:10057A007D127F0112062F7F03120726E4F580758C
:10058A0080201F1207267580FFAE11AF127C007DF6
:10059A00641202837C007D0A12028374F82DF582AC
:1005AA0074073CF583E493547F12074BAE11AF12E4
:1005BA0012061FAE11AF127C007D0A1202837F0859
:0305CA0002062FF7
:10066100E4F51812082B7F901206FA12080B7F038B
:100671001206FA12080B12085212082B7F91120669
:10068100FA12080B1207AA8F18D2001207E11208FA
:0306910052AF184D
:010694002243
:10076B008F1812082B7F901206FA12080B7F40127B
:10077B0006FA12080BAF181206FA12080B020852EF
:0F081C008F18AF181518EF60051206C880F42268
:10048F0020B31C7F1412081C20B31420B3051206CE
:10049F00C880F8E51770047F0180027F008F172056
:1004AF00B21C7F1412081C20B21420B2051206C809
:1004BF0080F8E51370047F0180027F008F1320B056
:1004CF001C7F1412081C20B01420B0051206C8801F
:1004DF00F8E51670047F0180027F008F1620B11C93
:1004EF007F1412081C20B11420B1051206C880F821
:0D04FF00E51070047F0180027F008F102245
:10069500E51370097F6612076BE4F50F22AC11AD07
:1006A50012E41201C9E4FBFA79C87842120127E481
:1006B500FBFA794C784212001E12020212076B7582
:0306C5000F012200
:04084600D2A07F05B8
:08084A0000AE071FEE70F92259
:0F082B00D2A1120846C2A17F0512084AC2A0221C
:0C085200C2A1120846D2A17F0502084A8C
:1007E100C2A0A20092A17F0512084A120846C2A027
:0707F100D2A17F0502084AB6
:10080B00120846A2A19200C2A07F0512084AA200BC
:01081B0022BA
:0206FA00AD074A
:1006FC00E4FCC2A07F0512084AED30E704D2A180C9
:10070C0002C2A17F0512084AD2A0ED25E0FD7F05AB
:09071C0012084A0CBC08DBC2A063
:0107250022B1
:1007AA00E4FC120846ED25E0FD30A103430501C231
:0C07BA00A07F0512084A0CBC08E8AF053F
:0107C6002210
:10001E00EC4D6011E8497017ED33EC3304600DE4DC
:10002E00FCFFFEFD22E933E8330470F802026E1283
:10003E00023958046009E4CC248150062850090284
:10004E000278284003020275C0E0EB4A7044B98082
:10005E0006D0E0FB020264EF4E701CBD8008EBFF81
:10006E00EAFEE9FD80EBE98DF0A4FEE5F002010762
:10007E00E9CDF9EAFEEBFFEF89F0A4FCE5F0CE89BD
:10008E00F0A42EFFE435F0CD89F0A42DFEE435F07A
:10009E008067EF4E7005BD80D780C3EF8BF0A4ACA8
:1000AE00F0EE8BF0A42CFCE435F0F8EF8AF0A42CE3
:1000BE00E5F038FCE433CB8DF0A42CFCE5F03BF8F6
:1000CE00EE8AF0A42CFCE5F038F8E433CF89F0A4E6
:1000DE002CFCE5F038CF3400CE89F0A42FFFE5F0EC
:1000EE003EFEE433C98DF0A42EFEE5F039CD8AF044
:1000FE00A42FFFE5F03EFEE43DFD33D0E0FB5007BC
:10010E000BBB000F020278EC2CFCEF33FFEE33FE3C
:06011E00ED33FD0202506A
:10012400020278EC5D046005E85904700302026E73
:10013400120239580460F6EC4860F2EC7004FDFEDB
:10014400FF22C860DB2481C85009C39860025006AE
:100154000202759850CAF582E9294B4A7005AB82B0
:1001640002026475F0007C1A7880C3EF9BEE9AED6E
:1001740099400DC3EF9BFFEE9AFEED99FDE842F026
:10018400DC23ACF0D0E0FFD0E0FED0E0FDAB822079
:10019400E7101BEB60BAEC2CFCEF33FFEE33FEED03
:1001A40033FD020250E803F830E705C0F075F000B3
:1001B400EF2FFFEE33FEED33FD40B830E7C280AAE7
:1001C40075F020800E75F010800575F0087D007EB6
:1001D400007F003392D530D5031202D8EC3340109F
:1001E400EF33FFEE33FEED33FDEC33FCD5F0ED22BF
:0E01F400E5F0247EA2D513CC92E7CDCEFF22FB
:10020200EDD2E7CD33EC3392D524814006E4FFFEF4
:10021200FDFC22FCE4CFCECDCC24E0501174FF8053
:10022200EDC3CC13CCCD13CDCE13CECF13CF0470F0
:07023200F030D5DE0202D816
:10023900E9D2E7C933E833F892D5EDD2E7CD33EC0B
:0702490033FC5002B2D52284
:10025000EC30E7100FBF000C0EBE00080DBD00040F
:100260000BEB6014A2D5EB13FCED92E7FD2274FFBB
:10027000FCFDFEFF22E480F8A2D574FF13FC7D8014
:03028000E480EF28
:0300000002038177
:0C038100787FE4F6D8FD7581200203C8E7
:10028300BC000BBE0029EF8DF084FFADF022E4CC5F
:10029300F875F008EF2FFFEE33FEEC33FCEE9DEC28
:1002A300984005FCEE9DFE0FD5F0E9E4CEFD22ED6E
:1002B300F8F5F0EE8420D21CFEADF075F008EF2FB8
:1002C300FFED33FD4007985006D5F0F222C398FDA9
:0502D3000FD5F0EA2246
:0E02D800C3E49FFFE49EFEE49DFDE49CFC2237
:10038D000205CDE493A3F8E493A34003F68001F2B4
:10039D0008DFF48029E493A3F85407240CC8C33371
:1003AD00C4540F4420C8834004F456800146F6DF40
:1003BD00E4800B010204081020408090083AE47E8E
:1003CD00019360BCA3FF543F30E509541FFEE49335
:1003DD00A360010ECF54C025E060A840B8E493A3FC
:1003ED00FAE493A3F8E493A3C8C582C8CAC583CA27
:1003FD00F0A3C8C582C8CAC583CADFE9DEE780BEDF
:0108450000B2
:00000001FF
