:1005CC00C0F9A4B0999282F880908880C6C0868EBB
:0505DC00BF7F8CC1C8C7
:06063700010A1E01091476
:100503007F04120555E4F5807F011205557580FFC0
:10051300850A0C85090B1204651201478E0D8F0E97
:0B05230012022B1203F412037480EB91
:1003F400E50F7033E50E6455450D60647D0C7F0197
:1004040012049FAE0DAF0E7C007D0A1201C87C0061
:100414007D0A1201C87F0712049FAE0DAF0E7C0047
:100424007D0A1201C880347D127F0112049FE50AFF
:1004340075F00A84FD7F0412049FE50A75F00A84AE
:10044400ADF07F0512049FE50975F00A84FD7F076E
:1004540012049FE50975F00A84ADF07F0812049F29
:010464002275
:10049F008F118D127F03120555E4F580E51114FFBE
:1004AF007401A807088002C333D8FCF5807F0212BD
:1004BF0005557580FFE5129005CC93F5807F017E81
:0804CF00001205987580FF2260
:10055500EF24FE600E14600F14601324037015C29F
:10056500A5800DD2A58002C2A5D2A6D2A722D2A56A
:05057500C2A6D2A7227E
:10059800E4FDFCC3ED9FEC9E500F790C7B32DBFE33
:0905A800D9FC0DBD00010C80EA34
:0105B1002227
:10022B0020B3367F1E1205F220B32E20B305120326
:10023B00F480F8E50F70047F0180027F008F0FE5DB
:10024B000FB40108850A0C85090B800DE509D395C0
:10025B000A4006850C0A850B0920B2217F1E120568
:10026B00F220B21920B2051203F480F8E50FB401A5
:10027B000CE50870047F0180027F008F0820B12DF0
:10028B007F1E1205F220B12520B1051203F480F870
:10029B00E50FB40118E508700BE509D39462500D16
:1002AB0005098009E50AD394625002050A20B02C97
:1002BB007F1E1205F220B02420B0051203F480F843
:1002CB00E50FB40117E508700AE509C39401400C6A
:0D02DB00150922E50AC394014002150A220C
:0F05F2008F10AF101510EF60051203F480F42284
:10037400E509D3950A5051E50AFD7C00E50E9DE59B
:100384000D9C400C7510D17F01120555C28080422E
:10039400E509FB7A00C3E50E9BE50D9A4015D3E50C
:1003A4000E9DE50D9C500C75109E7F01120555C2E3
:1003B40081801FC3E50E9BE50D9A501675106B7F67
:1003C40001120555C282800AE4F5107F0112055519
:1003D400C2831206107F901204D71205E17F4012E7
:1003E40004D71205E1AF101204D71205E102062B5F
:040601007F327E00C6
:0B060500EF1FAC0670011E4C70F622C7
:02057A00AD07CB
:10057C00E4FBC294ED139294120601D294EDC313D2
:0C058C00FD0BBB08ED7F327E000206056F
:1005B200E4FBC294EDC313FDD2943094034305804F
:0905C2001206010BBB08EBAF05AA
:0105CB00220D
:10052E00C200D2947F787E00120605C2947F207E90
:10053E0003120605D2947F647E00120605A29492E1
:06054E0000120601A200EC
:010554002284
:1004650012052E7FCC12057A7F4412057A12052ECD
:100475007FCC12057A7FBE12057A1205B2AA071241
:1004850005B2EF5407FEEAFFFDAC06E412010EE4E7
:09049500FBFA7980783D120003A6
:01049E00223B
:04061F00D2A07F05E1
:0806230000AE071FEE70F92282
:0F061000D2A112061FC2A17F05120623C2A0228B
:0C062B00C2A112061FD2A17F0502062307
:1005E10012061FA2A19200C2A07F05120623A2003B
:0105F10022E7
:0204D700AD076F
:1004D900E4FCC2A07F05120623ED30E704D2A18017
:1004E90002C2A17F05120623D2A0ED25E0FD7F05FA
:0904F9001206230CBC08DBC2A0B2
:0105020022D6
:10000300EC4D6011E8497017ED33EC3304600DE4F7
:10001300FCFFFEFD22E933E8330470F80201B3125A
:10002300017E58046009E4CC24815006285009025B
:1000330001BD2840030201BAC0E0EB4A7044B98015
:1000430006D0E0FB0201A9EF4E701CBD8008EBFF58
:10005300EAFEE9FD80EBE98DF0A4FEE5F00200EC99
:10006300E9CDF9EAFEEBFFEF89F0A4FCE5F0CE89D8
:10007300F0A42EFFE435F0CD89F0A42DFEE435F095
:100083008067EF4E7005BD80D780C3EF8BF0A4ACC3
:10009300F0EE8BF0A42CFCE435F0F8EF8AF0A42CFE
:1000A300E5F038FCE433CB8DF0A42CFCE5F03BF811
:1000B300EE8AF0A42CFCE5F038F8E433CF89F0A401
:1000C3002CFCE5F038CF3400CE89F0A42FFFE5F007
:1000D3003EFEE433C98DF0A42EFEE5F039CD8AF05F
:1000E300A42FFFE5F03EFEE43DFD33D0E0FB5007D7
:1000F3000BBB000F0201BDEC2CFCEF33FFEE33FE14
:06010300ED33FD02019541
:1001090075F020800E75F010800575F0087D007E71
:10011900007F003392D530D50312021DEC33401015
:10012900EF33FFEE33FEED33FDEC33FCD5F0ED227A
:0E013900E5F0247EA2D513CC92E7CDCEFF22B6
:10014700EDD2E7CD33EC3392D524814006E4FFFEB0
:10015700FDFC22FCE4CFCECDCC24E0501174FF800F
:10016700EDC3CC13CCCD13CDCE13CECF13CF0470AC
:07017700F030D5DE02021D8D
:10017E00E9D2E7C933E833F892D5EDD2E7CD33ECC7
:07018E0033FC5002B2D52240
:10019500EC30E7100FBF000C0EBE00080DBD0004CB
:1001A5000BEB6014A2D5EB13FCED92E7FD2274FF77
:1001B500FCFDFEFF22E480F8A2D574FF13FC7D80D0
:0301C500E480EFE4
:030000000202E811
:0C02E800787FE4F6D8FD75812002032F1A
:1001C800BC000BBE0029EF8DF084FFADF022E4CC1B
:1001D800F875F008EF2FFFEE33FEEC33FCEE9DECE4
:1001E800984005FCEE9DFE0FD5F0E9E4CEFD22ED2A
:1001F800F8F5F0EE8420D21CFEADF075F008EF2F74
:10020800FFED33FD4007985006D5F0F222C398FD64
:050218000FD5F0EA2201
:0E021D00C3E49FFFE49EFEE49DFDE49CFC22F2
:1002F400020503E493A3F8E493A34003F68001F218
:1003040008DFF48029E493A3F85407240CC8C3330A
:10031400C4540F4420C8834004F456800146F6DFD9
:10032400E4800B0102040810204080900637E47E2C
:10033400019360BCA3FF543F30E509541FFEE493CE
:10034400A360010ECF54C025E060A840B8E493A395
:10035400FAE493A3F8E493A3C8C582C8CAC583CAC0
:10036400F0A3C8C582C8CAC583CADFE9DEE780BE78
:01063D0000BC
:00000001FF
