:100B3B00C0F9A4B0999282F880908880C6C0868E46
:050B4B00BF7F8CC1C852
:03000300011B00DE
:100723007F041209E2E4F5807F011209E27580FF7C
:10073300120B7FE4FF120A07AC07E412032F8F1991
:100743008E188D178C16E4FFFE7D487C42AB19AAE8
:1007530018A917A8161202AC600D400BE4F519F5A1
:1007630018751748751642AF19AE18AD17AC16E4D5
:10077300FBFA7920784112020F8F198E188D178C8E
:100783001612095BAC07E412032FE4FBFA79A07895
:1007930040120106E4FBFA797F784312020F8F11AE
:1007A3008E108D0F8C0E120572120AAB12084712AF
:0807B3000447120B0C0207368B
:10084700E50C7F01B401071209E2C2808005120995
:10085700E2D280E50D7F01B401071209E2C281806F
:10086700051209E2D281C3E5159403E5149400400B
:10087700087F011209E2C28222E515451470077F3D
:07088700011209E2D28222F6
:100B0C00E51C700302088EE51CB401030208D5E550
:080B1C001CB40203120A63225B
:10068100D2B4D2B5D2C2D2C4E4F52143B00FAF2166
:100691007401A807088002C333D8FCF452B020C407
:1006A1001A7F14120B6120C46C20C405120B0C803C
:1006B100F8E52125E025E004F51B2220C21B7F146B
:1006C100120B6120C24F20C205120B0C80F8E521EC
:1006D10025E025E02402F51B2220B51B7F14120B17
:1006E1006120B53120B505120B0C80F8E52125E01C
:1006F10025E02403F51B2220B41B7F14120B61207B
:10070100B41320B405120B0C80F8E52125E025E097
:100711002404F51B220521E521C39404500302069C
:010721008C4B
:0107220022B4
:10057200120681E51BB40F15E4F51BF514F51505FC
:100582001CE51C64036003020680F51C22E51B6463
:1005920010704EF51BE51C6401703DF514F515FF56
:1005A200FE7DA07C40AB19AA18A917A8161202ACAE
:1005B200501BAF19AE18AD17AC16E4FBFAF9783F31
:1005C2001200158F198E188D178C16805FE4F5199D
:1005D200F518F517F51680540515E5157002051482
:1005E20022E51B640C706AF51BE51C64017059F569
:1005F20014F515FFFEFDFCAB19AA18A917A81612CF
:1006020002AC601D401BAF19AE18AD17AC16E4FB6F
:10061200FAF978BF1200158F198E188D178C168073
:100622000BE4F519F5187517A0751640E4FFFE7D69
:10063200207C41AB19AA18A917A8161201061203A9
:1006420063AD07E4FF020ACD0515E5157030051408
:1006520022E51BB40B19E4F51BE51CB40208E4F512
:1006620014F515F51A220515E5157012051422E583
:0F0672001B600BE4F51B0515E51570020514223E
:10044700E4FFFE7DA07C40AB19AA18A917A81612D5
:1004570002AC707CFFFE7DC87C42AB11AA10A90FCD
:10046700A80E120106120363C3EF94F4EE94015031
:1004770006750800750901E509640145086003026E
:100487000565FFFE7DC87C42AB19AA18A917A816F7
:10049700120106120363C006C007E4FFFE7DC87C95
:1004A70042AB11AA10A90FA80E120106120363D0BE
:1004B70005D004EF6D7002EE6C6003020565F50868
:1004C700F509051AE51A6464600302056502056209
:1004D700E4FFFE7DC87C42AB19AA18A917A816121B
:1004E7000106120363C006C007E4FFFE7DC87C4215
:1004F700AB11AA10A90FA80E120106120363D005AB
:10050700D004D3EF9DEE9C4006750A00750B01E5FC
:100517000B6401450A7047FFFE7DC87C42AB19AAF0
:1005270018A917A816120106120363C006C007E42C
:10053700FFFE7DC87C42AB11AA10A90FA80E1201BD
:1005470006120363D005D004D3EF9DEE9C500FE451
:10055700F50AF50B051AE51AB46403751A63E51A6B
:0A05670030E004750D0122E4F50DEB
:010571002267
:100AAB00AF19AE18AD17AC16AB11AA10A90FA80E43
:100ABB001202AC5003D28C22C28CE4F512F513F562
:020ACB000C22FB
:100919007C007D0A1203E47C007D0A1203E47F0750
:100929008F258D267F031209E2E4F580E52514FF62
:100939007401A807088002C333D8FCF5807F02122E
:1009490009E27580FFE526900B3B931209B6758085
:02095900FF227B
:0C09D6007F031209E2E4F5807580201F09
:1009E200EF24FE600E14600F14601324037015C20E
:1009F200A5800DD2A58002C2A5D2A6D2A722D2A5D9
:050A0200C2A6D2A722EC
:10099A007C007D641203E47C007D0A1203E4743B4C
:1009AA002DF582740B3CF583E493547FF5807F0127
:0209BA007E00BD
:1009BC00E4FDFCC3ED9FEC9E500F790C7B32DBFE0B
:0909CC00D9FC0DBD00010C80EA0C
:0109D50022FF
:0F0B61008F22AF221522EF6005120B0C80F422B9
:10088E00E4FFFE7DC87C42AB11AA10A90FA80E1280
:10089E0001061203638E238F247D137F0112092913
:1008AE001209D67580FFAE23AF2412099A7580FF08
:1008BE00AE23AF24120919AE23AF247C007D0A1299
:0708CE0003E47F0802092981
:1008D500E4FFFE7DC87C42AB19AA18A917A8161219
:1008E50001061203638E238F247D127F01120929CD
:1008F5001209D67580FFAE23AF2412099AAE23AF35
:1009050024120919AE23AF247C007D0A1203E47F6B
:0409150008020929A2
:100A63007D147F01120929E51A75F00A8475F00ACD
:100A730084ADF07F07120929E51A75F00A84ADF0F9
:050A83007F08020929B3
:100ACD008F218D22120B707FA0120A37120B50AF9F
:100ADD0021120A37120B50AF22120A37120B500295
:020AED000B9963
:020A07008F213D
:100A0900120B707FA0120A37120B50AF21120A374E
:100A1900120B50120B707FA1120A37120B50120AD7
:0D0A2900EF8F22D200120B24120B99AF2286
:010A3600229D
:10095B00E4F521F522120B707F90120A37120B501F
:10096B007F03120A37120B50120B99120B707F91E7
:10097B00120A37120B50120AEF8F21D200120B24DE
:0E098B00120B990522E522C3940240C9AF2148
:01099900223B
:0E0B7F00E4F589758C3C758AB0D2AFD2A922FC
:03000B00020A885E
:100A8800C0E0C0D00513E51370020512D39464E5E5
:100A98001294004009751200751300750C01D0D02E
:030AA800D0E03269
:040B8D00D2A07F056E
:080B910000AE071FEE70F9220F
:0F0B7000D2A1120B8DC2A17F05120B91C2A02240
:0C0B9900C2A1120B8DD2A17F05020B91AE
:100B2400C2A0A20092A17F05120B91120B8DC2A04C
:070B3400D2A17F05020B9125
:100B5000120B8DA2A19200C2A07F05120B91A200E0
:010B60002272
:020A3700AD0709
:100A3900E4FCC2A07F05120B91ED30E704D2A1803E
:100A490002C2A17F05120B91D2A0ED25E0FD7F0521
:090A5900120B910CBC08DBC2A0D9
:010A62002271
:100AEF00E4FC120B8DED25E0FD30A103430501C29F
:0C0AFF00A07F05120B910CBC08E8AF05AD
:010B0B0022C7
:10000E000203CFE86480F8E933E83360110460F04E
:10001E00ED33EC337009E8FCE9FDEAFEEBFF220458
:10002E0060DED3EB9FEA9EE99DE8C2E78CF0C2F753
:10003E0095F0400CE8CCF8E9CDF9EACEFAEBCFFB1F
:10004E0012039A85D0F05804700320D5B3E80470DB
:10005E00075002B2D50203D992D5EC0460F7E4CC76
:10006E00C0E0C398F8603B94186008400DD0E0FBE8
:10007E000203B1E4FBFAC9FC8028E830E406E4C9C7
:10008E00FBE4CAFCE830E305E4C9CACBFCE854073C
:10009E006010F8C3E913F9EA13FAEB13FBEC13FC47
:1000AE00D8F130F52FC3E49CFCEF9BFFEE9AFEEDEA
:1000BE0099FDD0E0FBEF4E4D4C701222DB03020394
:1000CE00D6EC2CFCEF33FFEE33FEED33FDED30E7D7
:1000DE00EB0203B1EF2BFFEE3AFEED39FDD0E0FB64
:1000EE0050130BBB00030203D9ED13FDEE13FEEF0D
:0800FE0013FFEC13FC0203B137
:10010600EC4D6011E8497017ED33EC3304600DE4F3
:10011600FCFFFEFD22E933E8330470F80203CF1238
:10012600039A58046009E4CC248150062850090239
:1001360003D92840030203D6C0E0EB4A7044B980D5
:1001460006D0E0FB0203C5EF4E701CBD8008EBFF36
:10015600EAFEE9FD80EBE98DF0A4FEE5F00201EF91
:10016600E9CDF9EAFEEBFFEF89F0A4FCE5F0CE89D4
:10017600F0A42EFFE435F0CD89F0A42DFEE435F091
:100186008067EF4E7005BD80D780C3EF8BF0A4ACBF
:10019600F0EE8BF0A42CFCE435F0F8EF8AF0A42CFA
:1001A600E5F038FCE433CB8DF0A42CFCE5F03BF80D
:1001B600EE8AF0A42CFCE5F038F8E433CF89F0A4FD
:1001C6002CFCE5F038CF3400CE89F0A42FFFE5F003
:1001D6003EFEE433C98DF0A42EFEE5F039CD8AF05B
:1001E600A42FFFE5F03EFEE43DFD33D0E0FB5007D3
:1001F6000BBB000F0203D9EC2CFCEF33FFEE33FEF2
:06020600ED33FD0203B11F
:10020C000203D9EC5D046005E8590470030203CFC6
:10021C0012039A580460F6EC4860F2EC7004FDFE90
:10022C00FF22C860DB2481C85009C39860025006C5
:10023C000203D69850CAF582E9294B4A7005AB8265
:10024C000203C575F0007C1A7880C3EF9BEE9AED23
:10025C0099400DC3EF9BFFEE9AFEED99FDE842F03D
:10026C00DC23ACF0D0E0FFD0E0FED0E0FDAB822090
:10027C00E7101BEB60BAEC2CFCEF33FFEE33FEED1A
:10028C0033FD0203B1E803F830E705C0F075F00068
:10029C00EF2FFFEE33FEED33FD40B830E7C280AAFE
:1002AC0074F8CC6480CCC86480C8F58204604FC3F9
:1002BC00EB9FF5F0EA9E42F0E99D42F0E89C45F098
:1002CC00603C501DE5825FFFE582D313CB5BCBF422
:1002DC002B5582FB50280ABA002409B9002008804B
:1002EC001DE5825BFBE582D313CF5FCFF4C3132FE5
:1002FC005582FF50090EBE00050DBD00010CC3EB6D
:10030C009FF5F0EA9E42F0E99D42F0E89C45F060D2
:09031C0007CC4820E701B3EC22F4
:1003250075F020800E75F010800575F0087D007E53
:10033500007F003392D530D503120439EC334010D9
:10034500EF33FFEE33FEED33FDEC33FCD5F0ED225C
:0E035500E5F0247EA2D513CC92E7CDCEFF2298
:10036300EDD2E7CD33EC3392D524814006E4FFFE92
:10037300FDFC22FCE4CFCECDCC24E0501174FF80F1
:10038300EDC3CC13CCCD13CDCE13CECF13CF04708E
:07039300F030D5DE02043951
:10039A00E9D2E7C933E833F892D5EDD2E7CD33ECA9
:0703AA0033FC5002B2D52222
:1003B100EC30E7100FBF000C0EBE00080DBD0004AD
:1003C1000BEB6014A2D5EB13FCED92E7FD2274FF59
:1003D100FCFDFEFF22E480F8A2D574FF13FC7D80B2
:0303E100E480EFC6
:030000000207BB39
:0C07BB00787FE4F6D8FD75812602080264
:1003E400BC000BBE0029EF8DF084FFADF022E4CCFD
:1003F400F875F008EF2FFFEE33FEEC33FCEE9DECC6
:10040400984005FCEE9DFE0FD5F0E9E4CEFD22ED0B
:10041400F8F5F0EE8420D21CFEADF075F008EF2F55
:10042400FFED33FD4007985006D5F0F222C398FD46
:050434000FD5F0EA22E3
:0E043900C3E49FFFE49EFEE49DFDE49CFC22D4
:1007C700020723E493A3F8E493A34003F68001F21E
:1007D70008DFF48029E493A3F85407240CC8C33333
:1007E700C4540F4420C8834004F456800146F6DF02
:1007F700E4800B0102040810204080900003E47E8F
:10080700019360BCA3FF543F30E509541FFEE493F6
:10081700A360010ECF54C025E060A840B8E493A3BD
:10082700FAE493A3F8E493A3C8C582C8CAC583CAE8
:10083700F0A3C8C582C8CAC583CADFE9DEE780BEA0
:0100060000F9
:00000001FF
