:10089B00C0F9A4B0999282F880908880C6C0868EE9
:0508AB00BF7F8CC1C8F5
:1008B000010A0002170000020800000212EA6002AA
:0308C0000C0258CF
:100566007F041207BEE4F5807F011207BE7580FF87
:10057600120852120737AC07E41201CEE4FBFA79EF
:10058600A0784012001EE4FBFA797F784312012717
:10059600E4FBFA79C8784212001E1202028E0E8F10
:1005A6000F1206F8AC07E41201CEE4FBFA79A07844
:1005B6004012001EE4FBFA797F7843120127E4FB20
:1005C600FA79C8784212001E1202028E158F161290
:0A05D60003A912086C1205E08099D9
:1006B6007C007D0A1202837C007D0A1202837F077A
:1006C6008F1D8D1E7F031207BEE4F580E51D14FF06
:1006D6007401A807088002C333D8FCF5807F021294
:1006E60007BE7580FFE51E90089B931207927580E2
:0206F600FF22E1
:0C07B2007F031207BEE4F5807580201F55
:1007BE00EF24FE600E14600F14601324037015C234
:1007CE00A5800DD2A58002C2A5D2A6D2A722D2A5FF
:0507DE00C2A6D2A72213
:100776007C007D641202837C007D0A120283749BD6
:100786002DF58274083CF583E493547FF5807F0150
:020796007E00E3
:10079800E4FDFCC3ED9FEC9E500F790C7B32DBFE31
:0907A800D9FC0DBD00010C80EA32
:0107B1002225
:10085200758904758AFF758CFF758BB0758D3CD2D6
:0A086200AFD2A9D2ABD28CD28E2205
:03000B0002000EE2
:0D000E00C0E00518E51870020517D0E032BB
:03001B0002080FC9
:10080F00C0E0C0D0050AE50AB4140F851708851893
:10081F0009750A00751700751800E510B401020577
:06082F0011D0D0D0E03230
:100651007D137F011206C67D107F021206C6E514C6
:1006610070247D017F031206C61207B27580FFAEAA
:100671000EAF0F1207767580FFAE0EAF0F1206B6E2
:10068100AE0EAF0F80227D037F031206C61207B2A2
:100691007580FFAE15AF161207767580FFAE15AFE8
:1006A100161206B6AE15AF167C007D0A1202837FC4
:0506B100081206C6223C
:100443007D0F7F011206C6D3E509940FE5089427B3
:100453004017AE08AF097C277D101202837C007D14
:100463000A1202837F041206C6D3E50994E7E5085E
:1004730094034017AE08AF097C037DE81202837C26
:10048300007D0A1202837F051206C6D3E509946331
:10049300E50894004017AE08AF097C007D641202A2
:1004A300837C007D0A1202837F061206C6D3E50908
:1004B3009409E50894004007AE08AF091206B6C3D5
:1004C300E50894004010AE08AF097C007D0A1202D3
:0704D300837F081206C62218
:1002E600AC08AD09E41201C9A804A905AA06AB0722
:1002F600E4FFFE7D807C3F1201277B007A2479741F
:10030600784912001E1202028E1B8F1C7D147F017B
:100316001206C6D3E51C940FE51B94274017AE1BA7
:10032600AF1C7C277D101202837C007D0A1202839B
:100336007F041206C6D3E51C94E7E51B9403401719
:10034600AE1BAF1C7C037DE81202837C007D0A1283
:1003560002837F051206C6D3E51C9463E51B940051
:100366004017AE1BAF1C7C007D641202837C007DAF
:100376000A1202837F061206C6D3E51C9409E51B02
:1003860094004007AE1BAF1C1206B6C3E51B9400D3
:100396004010AE1BAF1C7C007D0A1202837F081240
:0203A60006C689
:0103A8002232
:1006F800E4F51AF51B1208E47F901207E31208C408
:100708007F031207E31208C41208FF1208E47F915E
:100718001207E31208C41208358F1AD2001208848F
:0E0728001208FF051BE51BC3940240C9AF1A5F
:0107360022A0
:10073700E4F51AF51B1208E47F901207E31208C4C8
:100747007F011207E31208C41208FF1208E47F9121
:100757001207E31208C41208358F1AD20012088450
:0E0767001208FF051BE51BC3940240C9AF1A20
:010775002261
:0F08D5008F1AAF1A151AEF600512086C80F42203
:1003A90020B3227F141208D520B31A20B3051208EE
:1003B9006C80F80519E519B40303E4F519E519B4D6
:1003C9000203E4F51420B2217F141208D520B219D2
:1003D90020B20512086C80F8E519B4020CE5147016
:1003E900047F0180027F008F1420B0347F1412082B
:1003F900D520B02C75100120B00512086C80F8E4E6
:10040900F510E511D39414400EE50B70047F0180BB
:10041900027F008F0B8006850812850913E4F51108
:1004290020B1167F141208D520B10E20B10512088B
:0A0439006C80F885150C85160D2265
:10086C00E5197003020443E519B401030202E6E53D
:08087C0019B402031206512217
:1005E000E50B7064D3E516950DE515950C7F01407C
:1005F000071207BEC28080051207BED280D3E5096C
:100600009513E50895127F0140071207BEC281804D
:10061000051207BED281E519700C7F011207BEC218
:1006200082D283D28422E519B4010C7F011207BE65
:10063000D282C283D28422E519B402147F01120748
:10064000BED282D283C284227F011207BE7580FF90
:010650002287
:0408F300D2A07F050B
:0808F70000AE071FEE70F922AC
:0F08E400D2A11208F3C2A17F051208F7C2A02209
:0C08FF00C2A11208F3D2A17F050208F785
:10088400C2A0A20092A17F051208F71208F3C2A029
:07089400D2A17F050208F765
:1008C4001208F3A2A19200C2A07F051208F7A200A9
:0108D4002201
:0207E300AD0760
:1007E500E4FCC2A07F051208F7ED30E704D2A18032
:1007F50002C2A17F051208F7D2A0ED25E0FD7F0515
:090805001208F70CBC08DBC2A0CC
:01080E0022C7
:10083500E4FC1208F3ED25E0FD30A103430501C2F8
:0C084500A07F051208F70CBC08E8AF0506
:010851002284
:10001E00EC4D6011E8497017ED33EC3304600DE4DC
:10002E00FCFFFEFD22E933E8330470F802026E1283
:10003E00023958046009E4CC248150062850090284
:10004E000278284003020275C0E0EB4A7044B98082
:10005E0006D0E0FB020264EF4E701CBD8008EBFF81
:10006E00EAFEE9FD80EBE98DF0A4FEE5F002010762
:10007E00E9CDF9EAFEEBFFEF89F0A4FCE5F0CE89BD
:10008E00F0A42EFFE435F0CD89F0A42DFEE435F07A
:10009E008067EF4E7005BD80D780C3EF8BF0A4ACA8
:1000AE00F0EE8BF0A42CFCE435F0F8EF8AF0A42CE3
:1000BE00E5F038FCE433CB8DF0A42CFCE5F03BF8F6
:1000CE00EE8AF0A42CFCE5F038F8E433CF89F0A4E6
:1000DE002CFCE5F038CF3400CE89F0A42FFFE5F0EC
:1000EE003EFEE433C98DF0A42EFEE5F039CD8AF044
:1000FE00A42FFFE5F03EFEE43DFD33D0E0FB5007BC
:10010E000BBB000F020278EC2CFCEF33FFEE33FE3C
:06011E00ED33FD0202506A
:10012400020278EC5D046005E85904700302026E73
:10013400120239580460F6EC4860F2EC7004FDFEDB
:10014400FF22C860DB2481C85009C39860025006AE
:100154000202759850CAF582E9294B4A7005AB82B0
:1001640002026475F0007C1A7880C3EF9BEE9AED6E
:1001740099400DC3EF9BFFEE9AFEED99FDE842F026
:10018400DC23ACF0D0E0FFD0E0FED0E0FDAB822079
:10019400E7101BEB60BAEC2CFCEF33FFEE33FEED03
:1001A40033FD020250E803F830E705C0F075F000B3
:1001B400EF2FFFEE33FEED33FD40B830E7C280AAE7
:1001C40075F020800E75F010800575F0087D007EB6
:1001D400007F003392D530D5031202D8EC3340109F
:1001E400EF33FFEE33FEED33FDEC33FCD5F0ED22BF
:0E01F400E5F0247EA2D513CC92E7CDCEFF22FB
:10020200EDD2E7CD33EC3392D524814006E4FFFEF4
:10021200FDFC22FCE4CFCECDCC24E0501174FF8053
:10022200EDC3CC13CCCD13CDCE13CECF13CF0470F0
:07023200F030D5DE0202D816
:10023900E9D2E7C933E833F892D5EDD2E7CD33EC0B
:0702490033FC5002B2D52284
:10025000EC30E7100FBF000C0EBE00080DBD00040F
:100260000BEB6014A2D5EB13FCED92E7FD2274FFBB
:10027000FCFDFEFF22E480F8A2D574FF13FC7D8014
:03028000E480EF28
:030000000204DA1D
:0C04DA00787FE4F6D8FD75812002052132
:10028300BC000BBE0029EF8DF084FFADF022E4CC5F
:10029300F875F008EF2FFFEE33FEEC33FCEE9DEC28
:1002A300984005FCEE9DFE0FD5F0E9E4CEFD22ED6E
:1002B300F8F5F0EE8420D21CFEADF075F008EF2FB8
:1002C300FFED33FD4007985006D5F0F222C398FDA9
:0502D3000FD5F0EA2246
:0E02D800C3E49FFFE49EFEE49DFDE49CFC2237
:1004E600020566E493A3F8E493A34003F68001F2C1
:1004F60008DFF48029E493A3F85407240CC8C33317
:10050600C4540F4420C8834004F456800146F6DFE5
:10051600E4800B01020408102040809008B0E47EBD
:10052600019360BCA3FF543F30E509541FFEE493DA
:10053600A360010ECF54C025E060A840B8E493A3A1
:10054600FAE493A3F8E493A3C8C582C8CAC583CACC
:10055600F0A3C8C582C8CAC583CADFE9DEE780BE84
:0108C3000034
:00000001FF
