:10068B00C0F9A4B0999282F880908880C6C0868EFB
:09069B00BF7F323B170501031675
:09000E00013C01042701051E3C20
:100505007F041205E0E4F5807F011205E07580FFA8
:100515001206BD12053312049B1201628E2E8F2F17
:0E0525001205601201F11206D512058D80E854
:1006BD00E4F589758C3C758AB0758D3C758BB0D21F
:0806CD00AFD2A9D2ABD28E22FC
:03000B000203737A
:0D037300C0E0C0F0C0D075D000C000C007D1
:10038000052CE52C7002052BE53C75F014A4FFC389
:10039000E52C9FE52B95F04024752B00752C0074FF
:1003A000322522F8A62F0522E52270020521640AD3
:0D03B00045217009C28CF521F52275300140
:0B03BD00D007D000D0D0D0F0D0E0324C
:03001B000203C815
:1003C800C0E0C0D075D000C00705260531E531C3AF
:1003D8009404400F753100E52D70047F0180027F81
:1003E800008F2DE526C39414401D752600E5457041
:1003F800047F0180027F008F45E544B40209E525AA
:0E040800D3940850020525D007D0D0D0E032A2
:10058D00E53064017018E54464017012E52D700EBC
:10059D007580FF7F011205E07580FFC28022758096
:0C05AD00FF7F011205E07580FFD2802264
:0F06ED008F08AF081508EF60051206D580F422BC
:1001F10020B32E7F141206ED20B32620B30512067C
:10020100D580F8E544701A74272524F8E6F53C05F5
:1002110024E52470020523640445237004F523F5C5
:100221002420B21D7F141206ED20B21520B2051252
:1002310006D580F8E5447009D28C754401F530F596
:100241002520B01A7F141206ED20B01220B005123D
:1002510006D580F8E544B40205E4F544F52520B15E
:100261001B7F141206ED20B11320B1051206D580B3
:0C027100F8E530B40106754402E4F526FF
:01027D00225E
:0C04160075F00A8475F00A84ADF07F07D1
:100422008F098D0A7F031205E0E4F580E50914FFC8
:100432007401A807088002C333D8FCF5807F02123A
:1004420005E07580FFE50A90068B93F5807F017EBB
:080452000012063E7580FF2236
:1005E000EF24FE600E14600F14601324037015C214
:1005F000A5800DD2A58002C2A5D2A6D2A722D2A5DF
:05060000C2A6D2A722F2
:10063E00E4FDFCC3ED9FEC9E500F790C7B32DBFE8C
:09064E00D9FC0DBD00010C80EA8D
:010657002280
:10053300750980E4FD7F8E120623E4F508E5089033
:10054300069D93FDAF09120623050905090508E574
:0D05530008C3940740E77D807F8E020623D9
:10056000750981E4FD7F8E120623E4F508AF0912B8
:1005700004D5743D2508F8A607050905090508E511
:0D05800008C3940740E77D807F8E020623AC
:100672007D107F06120422E53C120416E53C75F05B
:090682000A84ADF07F0802042295
:10030A00E53F75F00A8475F00A84ADF07F011204A6
:10031A0022E53F75F00A84ADF07F02120422E53E21
:10032A0075F00A8475F00A84ADF07F04120422E5A0
:10033A003E75F00A84ADF07F05120422E53D1204F1
:10034A0016E53D75F00A84ADF07F08120422E545F2
:10035A00700E7D107F031204227D107F0602042294
:09036A007F031205E0E4F5802296
:10045A007D107F01120422E52575F00A84FD7F02D2
:10046A00120422E52575F00A84ADF07F03120422F6
:10047A007D107F0612042274322525F8E61204162E
:10048A0074322525F8E675F00A84ADF07F08020477
:01049A00223F
:1006D500E5447003020672E544B4010302030AE52A
:0806E50044B4020312045A227E
:0406FC007F327E00CB
:0B070000EF1FAC0670011E4C70F622CB
:02060500AD073F
:10060700E4FBC294ED1392941206FCD294EDC3134B
:0C061700FD0BBB08ED7F327E00020700E7
:10065800E4FBC294EDC313FDD294309403430580A8
:090668001206FC0BBB08EBAF0508
:010671002266
:1005B900C200D2947F787E00120700C2947F207E09
:1005C90003120700D2947F647E00120700A294925E
:0605D900001206FCA20066
:0105DF0022F9
:10049B001205B97FCC1206057F441206051205B969
:1004AB007FCC1206057FBE120605120658AA07124C
:1004BB000658EF5407FEEAFFFDAC06E4120129E4EF
:0904CB00FBFA7980783D12001E55
:0104D4002205
:1004D5001206A4E4FFC297E50AC313F50A30A30385
:1004E500430A80D2970FBF08ECC2A3E50AC4540F94
:0F04F500FFE50A540FFEEF75F00AA42EF50AFF7B
:0105040022D4
:0606A400C293C297D2933D
:1006AA00E4FEC297EF1392A3EFC313FFD2970EBED5
:0206BA0008F046
:0106BC00221B
:100623001206A4ED75F00A84C454F0FFED75F00AC8
:0A06330084E5F02FFF1206AAC2931F
:01063D00229A
:10001E00EC4D6011E8497017ED33EC3304600DE4DC
:10002E00FCFFFEFD22E933E8330470F80201CE1224
:10003E00019958046009E4CC248150062850090225
:10004E0001D82840030201D5C0E0EB4A7044B980C4
:10005E0006D0E0FB0201C4EF4E701CBD8008EBFF22
:10006E00EAFEE9FD80EBE98DF0A4FEE5F002010762
:10007E00E9CDF9EAFEEBFFEF89F0A4FCE5F0CE89BD
:10008E00F0A42EFFE435F0CD89F0A42DFEE435F07A
:10009E008067EF4E7005BD80D780C3EF8BF0A4ACA8
:1000AE00F0EE8BF0A42CFCE435F0F8EF8AF0A42CE3
:1000BE00E5F038FCE433CB8DF0A42CFCE5F03BF8F6
:1000CE00EE8AF0A42CFCE5F038F8E433CF89F0A4E6
:1000DE002CFCE5F038CF3400CE89F0A42FFFE5F0EC
:1000EE003EFEE433C98DF0A42EFEE5F039CD8AF044
:1000FE00A42FFFE5F03EFEE43DFD33D0E0FB5007BC
:10010E000BBB000F0201D8EC2CFCEF33FFEE33FEDD
:06011E00ED33FD0201B00B
:1001240075F020800E75F010800575F0087D007E56
:10013400007F003392D530D5031201E3EC33401035
:10014400EF33FFEE33FEED33FDEC33FCD5F0ED225F
:0E015400E5F0247EA2D513CC92E7CDCEFF229B
:10016200EDD2E7CD33EC3392D524814006E4FFFE95
:10017200FDFC22FCE4CFCECDCC24E0501174FF80F4
:10018200EDC3CC13CCCD13CDCE13CECF13CF047091
:07019200F030D5DE0201E3AD
:10019900E9D2E7C933E833F892D5EDD2E7CD33ECAC
:0701A90033FC5002B2D52225
:1001B000EC30E7100FBF000C0EBE00080DBD0004B0
:1001C0000BEB6014A2D5EB13FCED92E7FD2274FF5C
:1001D000FCFDFEFF22E480F8A2D574FF13FC7D80B5
:0301E000E480EFC9
:0300000002027E7B
:0C027E00787FE4F6D8FD7581450202C5CA
:0E01E300C3E49FFFE49EFEE49DFDE49CFC222D
:10028A00020505E493A3F8E493A34003F68001F280
:10029A0008DFF48029E493A3F85407240CC8C33375
:1002AA00C4540F4420C8834004F456800146F6DF44
:1002BA00E4800B010204081020408090000EE47EC6
:1002CA00019360BCA3FF543F30E509541FFEE49339
:1002DA00A360010ECF54C025E060A840B8E493A300
:1002EA00FAE493A3F8E493A3C8C582C8CAC583CA2B
:1002FA00F0A3C8C582C8CAC583CADFE9DEE780BEE3
:0100170000E8
:00000001FF
